:100000000C94FE000C942F010C942F010C942F01E2
:100010000C942F010C942F010C942F010C942F01A0
:100020000C942F010C942F010C942F010C942F0190
:100030000C942F010C942F010C942F010C942F0180
:100040000C942F010C942F010C942F010C942F0170
:100050000C942F010C942F010C942F010C947D040F
:100060000C942F010C9418070C94F0070C942F019A
:100070000C942F010C942F010C942F010C942F0140
:100080000C942F010C942F010C942F010C942F0130
:100090000C9446070C9430080C942F010C942F01FB
:1000A0000C942F010C942F010C942F010C942F0110
:1000B0000C942F010C942F010C942F010C942F0100
:1000C0000C942F010C942F010C942F010C947407A5
:1000D0000C9470080C942F010C94A2070C94B00897
:1000E0000C942F010000090A02080B0C0D070603EF
:1000F00004010000000000000000000000000000FB
:1001000000000000000000000000000000000000EF
:1001100011100F00000000000000000000000000AF
:100120000000000000000000000001021020200874
:100130000810204010204080020102010804020142
:1001400001020408102040808040201008040201B1
:10015000800402018040201008040201080402010A
:100160000102040810204080010204081020408091
:1001700005050505070508080808020202020A0A23
:100180000808040404040101010101010101030341
:10019000030303030303040707070C0C0C0C0C0CEC
:1001A0000C0C0202020206060606060606060B0BE9
:1001B0000B0B0B0B0B0B00002200250028002B0063
:1001C0002E003100340002010000050108010B017E
:1001D00000002100240027002A002D0030003300F9
:1001E00001010000040107010A0146047009FA0A2E
:1001F000FE0FC210B012221B3D20462311241FBE49
:10020000CFEFD1E2DEBFCDBF00E00CBF14E0A0E035
:10021000B2E0EEECF6E500E00BBF02C007900D92F5
:10022000A438B107D9F717E0A4E8B4E001C01D92E3
:10023000AD3BB107E1F711E0CCEFD1E000E006C043
:1002400022970109FE010BBF0E94612BCA3ED10714
:1002500080E00807A9F70E94090B0C94C6250C94AE
:100260000000CF93DF93CDB7DEB7C258D1090FB6E8
:10027000F894DEBF0FBECDBFFE01E857FF4F41919E
:100280005191CF57DF4FF983E883C158D0409F0188
:1002900060E870E0CE0101960E945026BE016F5FBB
:1002A0007F4F8DE195E00E94860BCE57DF4F0FB652
:1002B000F894DEBF0FBECDBFDF91CF910895BF92FE
:1002C000CF92DF92EF92FF920F931F93CF93DF9322
:1002D00040E855E260E070E08DE195E00E94F008B2
:1002E0000E945117609388047093890480938A0454
:1002F00090938B04109284041092850410928604CB
:1003000010928704C0EAD3E08CEAE82E83E0F82E4E
:1003100008EB13E0B880229661E08B2D0E94F70570
:10032000F701C080F2E0EF0EF11C61E08C2D0E941D
:10033000F705F801D0800E5F1F4F61E08D2D0E9400
:10034000F70560E08B2D0E942F0660E08C2D0E9447
:100350002F0660E08D2D0E942F06F3E0CC3ADF07D8
:10036000C9F661E08DE00E94F70560E08DE00E9433
:100370002F066AE072E088E697E00E941E10892B43
:1003800069F46BE172E08DE195E00E94B90B63E9DD
:1003900072E08DE195E00E94860BF9CF68EE73E084
:1003A00080E090E00E94030563E472E08DE195E057
:1003B000DF91CF911F910F91FF90EF90DF90CF9041
:1003C000BF900C94B90B0F931F93CF93DF93EC0165
:1003D000CC0FDD1FFE01E455FC4F008161E0802F52
:1003E0000E942F06FE01E854FC4F108160E0812F2F
:1003F0000E942F0664EF71E080E090E00E94030508
:10040000CC53DC4F88810E945404D82FC92F6AE056
:1004100070E080E090E00E94030560E0802F0E9481
:100420002F0661E0812F0E942F066EEF71E080E0C1
:1004300090E00E94030560E0812F0E942F068D2F1F
:100440009C2FDF91CF911F910F9108955F926F9232
:100450007F928F929F92AF92BF92CF92DF92EF9254
:10046000FF920F931F93CF93DF93EC010E94E30160
:100470007E01EE0CFF1C870108561B4FF80180839C
:1004800091839F938F93DF93CF9381E592E09F9326
:100490008F930E943101F80160817181882777FD77
:1004A0008095982F0E9420274E01880C991C880C5B
:1004B000991CF401E053FC4F0F900F900F900F9098
:1004C0000F900F9020813181428153810E94EE264E
:1004D0005CE8C52E54E0D52ECE0CDF1CF60187FD5E
:1004E00003C01182108250C08081918118161906B4
:1004F00034F461E08DE00E942F06F60140C0DF93E6
:10050000CF9380E792E09F938F930E943101F70190
:10051000E056FC4F508061E0852D0E942F060F9021
:100520000F900F900F902BE0A22EB12C3701F40109
:10053000E851FC4FC080D180E280F380F8016081F7
:100540007181882777FD8095982F0E942027A70129
:1005500096010E94EE2687FF0BC0F1E0AF1AB108AA
:1005600039F0CE010E94E301F80191838083E6CF48
:1005700060E0852D0E942F06F301E457FB4F808138
:100580009181019691838083DF91CF911F910F918B
:10059000FF90EF90DF90CF90BF90AF909F908F90A3
:1005A0007F906F905F9008952F923F924F925F924D
:1005B0006F927F928F929F92AF92BF92CF92DF9273
:1005C000EF92FF920F931F93CF93DF93CDB7DEB7D8
:1005D00067970FB6F894DEBF0FBECDBF84EA94E0F4
:1005E0000E942A0F81112FC084EA94E00E944E0FCE
:1005F00067E872E08DE195E00E94B90B60E172E07E
:10060000CE0140960E94DF0A48E354E0BE01605FDD
:100610007F4F84EA94E00E94910F892B39F065E9BD
:1006200072E08DE195E00E94B90BD8CF6FE972E0DE
:100630008DE195E00E94B90B68E873E180E090E0FD
:100640000E940305CBCF86EA97E00E94D01A5C0196
:1006500068E9E62E64E0F62E7CE8472E74E0572E1B
:1006600000E010E0E1EB2E2EE2E03E2ECC24C3941D
:10067000D12CCC0EDD1E86EA97E00E94D91A3C01EF
:10068000AC01B50186EA97E00E945E1A1F930F93B2
:100690003F922F92DF92CF920E941F26FF8AEE8A0E
:1006A000F70181818F9380818F93DF92CF928AEBC4
:1006B00092E09F938F930E943101960142EE52E0A7
:1006C000B30186EA97E00E94021B86EA97E00E9447
:1006D000D91A4C019C0147EE52E0B30186EA97E03B
:1006E0000E947A1A2FEF33E040E050E060E070E0C3
:1006F000CB010E94C30CF2E0EF0EF11CEE89FF89E2
:10070000208131814CEE52E0B40186EA97E00E94EC
:10071000E21AF201819191912F0121E030E00197DD
:1007200011F020E030E045EF52E0B40186EA97E0B6
:100730000E94E21A0F5F1F4F0FB6F894DEBF0FBE84
:10074000CDBF0230110509F096CFB50186EA97E0DA
:100750000E94211A8C011F938F938DEF92E09F933B
:100760008F930E9431016AE073E084EA94E00E9472
:10077000B90B6EE173E084EA94E00E94B90B68E281
:1007800073E084EA94E00E94B90B6FE373E084EABB
:1007900094E00E94B90BF80101900020E9F7BF0135
:1007A00061507109601B710B4AE0CE0109960E94ED
:1007B000890D6FE673E0CE0101960E94520DBE01D5
:1007C000675F7F4FCE0101960E94E20DBC0184EA73
:1007D00094E00E94A50BCE0101960E94E10CCE018F
:1007E00009960E94E10C60E873E084EA94E00E94BC
:1007F000B90B84EA94E00E948F0BB80184EA94E07C
:100800000E94B90B0F900F900F900F9001151105DA
:1008100019F0C8010E94EC23B50186EA97E00E9416
:10082000561867960FB6F894DEBF0FBECDBFDF91A6
:10083000CF911F910F91FF90EF90DF90CF90BF90DD
:10084000AF909F908F907F906F905F904F903F9070
:100850002F9008956DE973E08DE195E00E94860B7D
:1008600080E090E00E94260268EE73E080E090E075
:100870000E94030581E090E00E94260268EE73E08A
:1008800080E090E00E9403050C94D4020F9300E0F6
:1008900020E040E060E081EB94E00E94D30A84EA2B
:1008A00094E00F910C940B0F863308F0865320913F
:1008B0007B00982F9870277F922B90937B008770F6
:1008C0002091140240E4249F90011124822B8093F4
:1008D0007C0080917A00806480937A0080917A0015
:1008E00086FDFCCF2091780030917900932F80E035
:1008F000AC01422B9A01C90108951F920F920FB6C5
:100900000F9211242F933F938F939F93AF93BF9395
:100910008091B7049091B804A091B904B091BA0441
:100920003091BF04232F2D5F2D3720F40196A11D98
:10093000B11D05C0232F2A570296A11DB11D20937A
:10094000BF048093B7049093B804A093B904B09304
:10095000BA048091BB049091BC04A091BD04B091F5
:10096000BE040196A11DB11D8093BB049093BC04ED
:10097000A093BD04B093BE04BF91AF919F918F919E
:100980003F912F910F900FBE0F901F9018950F93CE
:100990001F938FB7F8940091B7041091B804209179
:1009A000B9043091BA048FBFB801C9011F910F91EA
:1009B00008950F931F939FB7F8940091BB04109173
:1009C000BC042091BD043091BE0486B5A89B06C02E
:1009D0008F3F21F00F5F1F4F2F4F3F4F9FBF322F91
:1009E000212F102F0027080F111D211D311D42E05E
:1009F000000F111F221F331F4A95D1F7B801C901FB
:100A00001F910F910895CF92DF92EF92FF92CF93B3
:100A1000DF936B017C010E94D904EB010EC00E94A0
:100A2000D9046C1B7D0B683E734038F081E0C81A16
:100A3000D108E108F108C851DC4FC114D104E10428
:100A4000F10469F7DF91CF91FF90EF90DF90CF90A5
:100A50000895789484B5826084BD84B5816084BD36
:100A600085B5826085BD85B5816085BDEEE6F0E027
:100A7000808181608083E1E8F0E010828081826083
:100A80008083808181608083E0E8F0E08081816004
:100A90008083E1EBF0E0808184608083E0EBF0E034
:100AA000808181608083E1E9F0E0808182608083E1
:100AB000808181608083E0E9F0E0808181608083D3
:100AC000E1EAF0E0808182608083808181608083C0
:100AD000E0EAF0E0808181608083E1E2F1E0808102
:100AE00082608083808181608083E0E2F1E08081A8
:100AF00081608083EAE7F0E0808184608083808188
:100B0000826080838081816080838081806880832F
:100B10001092C1000895893009F443C088F48430EC
:100B200029F138F4823059F1E8F4813009F05EC0DF
:100B300023C0873061F188F5863009F057C023C0A3
:100B40008D3009F440C020F48B30A9F1C0F52DC0E0
:100B5000803109F442C0813109F443C08F3009F07B
:100B600045C037C0809180008F7703C0809180009E
:100B70008F7D80938000089584B58F7702C084B5FF
:100B80008F7D84BD08958091B0008F7703C08091E0
:100B9000B0008F7D8093B0000895809190008F7792
:100BA00007C0809190008F7D03C080919000877F67
:100BB0008093900008958091A0008F7707C0809166
:100BC000A0008F7D03C08091A000877F8093A0004C
:100BD0000895809120018F7707C0809120018F7D3B
:100BE00003C080912001877F809320010895CF93D7
:100BF000DF9390E0FC01E65DFE4F4491FC01E0597B
:100C0000FE4F8491882341F190E0880F991FFC01E9
:100C1000E053FE4F25913491D9018A549E4FFC0137
:100C200085919491C82FD92F9FB7F8948C91611119
:100C300006C0409584238C938881842308C0623049
:100C400041F4242F209582238C938881842B8883E0
:100C500002C0842B8C939FBFDF91CF9108950F9397
:100C60001F93CF93DF931F92CDB7DEB7282F30E0CD
:100C7000F901EC51FF4F8491F901E65DFE4F1491AB
:100C8000F901E059FE4F04910023D1F0882321F0AF
:100C900069830E948B056981E02FF0E0EE0FFF1F52
:100CA000EA54FE4F85919491DC019FB7F8948C91A2
:100CB000611103C01095812301C0812B8C939FBFCC
:100CC0000F90DF91CF911F910F910895FC018485C2
:100CD0009585FC01E05CFF4F20813181FC01EE5BDA
:100CE000FF4F80819181281B390B2F733327C90156
:100CF0000895FC0184859585FC01E05CFF4F4081EF
:100D00005181FC01EE5BFF4F208131814217530777
:100D100041F00190F081E02DE80FF91F208130E0D3
:100D200002C02FEF3FEFC9010895FC01848595852E
:100D3000FC01E05CFF4F40815181FC01EE5BFF4F05
:100D4000208131814217530771F0A081B181A80F32
:100D5000B91F2C918081918101968F73992791837E
:100D6000808330E002C02FEF3FEFC9010895FC01FE
:100D700086859785FC01E05CFF4FDC01AE5BBF4FD1
:100D8000408151812D913C91119742175307C1F732
:100D90000895CF93DF93FC0126853785D901A05CA8
:100DA000BF4F8D919C91119701968F739927E901FF
:100DB000CE5BDF4F4881598184179507D9F30D9099
:100DC000BC91A02DA20FB31F6C93A685B785A05C24
:100DD000BF4F11969C938E93A689B7892C9181E081
:100DE00090E0058C02C0880F991F0A94E2F7282B27
:100DF0002C9381E090E0DF91CF910895FB01E05CBE
:100E0000FF4F208131812F5F3F4F2F733327DB014D
:100E1000AE5BBF4F4D915C912417350739F0A0812F
:100E2000B181A60FB71F8C93318320830895089555
:100E30001F920F920FB60F9211240BB60F921BBE8A
:100E40002F933F934F935F936F937F938F939F93D2
:100E5000AF93BF93EF93FF938091C60068E177E073
:100E60000E94FE06FF91EF91BF91AF919F918F91EC
:100E70007F916F915F914F913F912F910F900BBE9A
:100E80000F900FBE0F901F90189508951F920F920C
:100E90000FB60F9211240BB60F921BBE2F933F93E8
:100EA0004F935F936F937F938F939F93AF93BF9372
:100EB000EF93FF938091CE0060E976E00E94FE06FA
:100EC000FF91EF91BF91AF919F918F917F916F9122
:100ED0005F914F913F912F910F900BBE0F900FBEDE
:100EE0000F901F90189508951F920F920FB60F92B2
:100EF00011240BB60F921BBE2F933F934F935F931A
:100F00006F937F938F939F93AF93BF93EF93FF93D1
:100F10008091D60068E076E00E94FE06FF91EF9196
:100F2000BF91AF919F918F917F916F915F914F9101
:100F30003F912F910F900BBE0F900FBE0F901F90FF
:100F4000189508951F920F920FB60F9211240BB6A9
:100F50000F921BBE2F933F934F935F936F937F939B
:100F60008F939F93AF93BF93EF93FF93809136013D
:100F700060E875E00E94FE06FF91EF91BF91AF918E
:100F80009F918F917F916F915F914F913F912F91A1
:100F90000F900BBE0F900FBE0F901F9018958DE114
:100FA00095E00E946606892B11F00E9417078EEFCC
:100FB00094E00E946606892B11F00E9445078FED90
:100FC00094E00E946606892B11F00E94730780EC62
:100FD00094E00E946606892B11F00C94A1070895F5
:100FE0001F920F920FB60F9211240BB60F921BBED9
:100FF0002F933F938F939F93EF93FF932091140729
:101000003091150780911607909117072817390717
:1010100031F48091C1008F7D8093C10014C0E091B4
:101020001607F0911707EC52F94F208180911607AF
:101030009091170701968F739927909317078093C4
:1010400016072093C600FF91EF919F918F913F91DA
:101050002F910F900BBE0F900FBE0F901F90189501
:101060001F920F920FB60F9211240BB60F921BBE58
:101070002F933F938F939F93EF93FF9320918C0631
:1010800030918D0680918E0690918F062817390732
:1010900031F48091C9008F7D8093C90014C0E09124
:1010A0008E06F0918F06E45BF94F208180918E06C9
:1010B00090918F0601968F73992790938F06809356
:1010C0008E062093CE00FF91EF919F918F913F91DB
:1010D0002F910F900BBE0F900FBE0F901F90189581
:1010E0001F920F920FB60F9211240BB60F921BBED8
:1010F0002F933F938F939F93EF93FF932091040639
:101100003091050680910606909107062817390749
:1011100031F48091D1008F7D8093D10014C0E09193
:101120000606F0910706EC53FA4F208180910606DF
:101130009091070601968F739927909307068093E5
:1011400006062093D600FF91EF919F918F913F91DA
:101150002F910F900BBE0F900FBE0F901F90189500
:101160001F920F920FB60F9211240BB60F921BBE57
:101170002F933F938F939F93EF93FF9320917C0541
:1011800030917D0580917E0590917F052817390764
:1011900031F4809131018F7D8093310114C0E09151
:1011A0007E05F0917F05E45CFA4F208180917E05F9
:1011B00090917F0501968F73992790937F05809377
:1011C0007E0520933601FF91EF919F918F913F9182
:1011D0002F910F900BBE0F900FBE0F901F90189580
:1011E000CF92DF92EF92FF92CF93DF93EC016A01EF
:1011F0007B01411581EE580761057105F9F0EC8915
:10120000FD8981E090E00E8C02C0880F991F0A943E
:10121000E2F7808360E079E08DE390E0A70196013A
:101220000E941C2B215031094109510956954795BF
:1012300037952795211580E1380798F0EC89FD89CD
:10124000108260E874E88EE190E0A70196010E94A8
:101250001C2B215031094109510956954795379565
:101260002795E889F9893083EA89FB892083EE890B
:10127000FF89408181E090E09C010A8C02C0220F2E
:10128000331F0A94E2F7422B4083EE89FF894081A5
:101290009C010B8C02C0220F331F0A94E2F7422BF1
:1012A0004083EE89FF8940819C010C8C02C0220F93
:1012B000331F0A94E2F7422B4083EE89FF89208195
:1012C0000D8C02C0880F991F0A94E2F78095822343
:1012D0008083DF91CF91FF90EF90DF90CF900895C2
:1012E000CF931092200510921F0588EE93E0A0E0A6
:1012F000B0E08093210590932205A0932305B0933D
:10130000240524E034E030931E0520931D0548E1B8
:1013100057E050932A054093290544ED56E0509339
:101320002C0540932B0545EC50E050932E0540933F
:101330002D0544EC50E05093300540932F0540ECD0
:1013400050E0509332054093310541EC50E050930A
:1013500034054093330546EC50E0509336054093F6
:101360003505C4E0C0933705F3E0F0933805E7E0B6
:10137000E093390575E070933A0561E060933B05B1
:1013800010920105109200058093020590930305C9
:10139000A0930405B09305053093FF042093FE0449
:1013A00040E956E050930B0540930A054CE456E0A3
:1013B00050930D0540930C054DEC50E050930F05F4
:1013C00040930E054CEC50E05093110540931005EE
:1013D00048EC50E0509313054093120549EC50E05F
:1013E00050931505409314054EEC50E050931705AB
:1013F00040931605C0931805F0931905E0931A055C
:1014000070931B0560931C051092E2041092E10496
:101410008093E3049093E404A093E504B093E6047E
:101420003093E0042093DF0448E056E05093EC044E
:101430004093EB0444EC55E05093EE044093ED04EC
:1014400045ED50E05093F0044093EF0444ED50E03C
:101450005093F2044093F10440ED50E05093F404B3
:101460004093F30441ED50E05093F6044093F504AB
:1014700046ED50E05093F8044093F704C093F9040C
:10148000F093FA04E093FB047093FC046093FD0472
:101490001092C3041092C2048093C4049093C504B4
:1014A000A093C604B093C7043093C1042093C00432
:1014B00080E895E09093CD048093CC048CE395E094
:1014C0009093CF048093CE0485E391E09093D10470
:1014D0008093D00484E391E09093D3048093D2046A
:1014E00080E391E09093D5048093D40481E391E06C
:1014F0009093D7048093D60486E391E09093D90427
:101500008093D804C093DA04F093DB04E093DC0406
:101510007093DD046093DE04CF910895AF92BF9283
:10152000CF92DF92EF92FF920F931F93CF93DF93AF
:101530006C017B01C0E0D0E000E010E0F601EC0FB0
:10154000FD1F4AE050E06281C7010E943C0C5C0133
:101550006EE2C7010E94880B8A0D9B1D080F191FA0
:101560002196C330D10551F74AE050E0F60165817C
:10157000C7010E943C0C080F191FC801DF91CF91D1
:101580001F910F91FF90EF90DF90CF90BF90AF90A1
:10159000089524E134E0FC01318320831282138218
:1015A0001482158208950F93FC0184E194E09183E5
:1015B000808362834383248305830F91089524E10C
:1015C00034E0FC0131832083FB0140815181628141
:1015D0007381FC0142835383648375830895FC0106
:1015E000DB014D915D916D917C91428353836483C6
:1015F0007583089584E194E090935D0780935C0780
:1016000010925E0710925F071092600710926107B8
:1016100008950E9429050E945F01CFECD7E00E9447
:101620002A042097E1F30E94CF07F9CF0C945123AD
:10163000CF92DF92EF92FF920F931F93CF93DF939E
:101640006C01EB017A01E60EF71E00E010E00BC022
:101650006991D601ED91FC910190F081E02DC601D8
:101660001995080F191FCE15DF0591F7C801DF91F5
:10167000CF911F910F91FF90EF90DF90CF90089541
:10168000DB010D900020E9F7AD0141505109461BE7
:10169000570BDC01ED91FC910280F381E02D199450
:1016A000AF92BF92CF92DF92EF92FF920F931F9370
:1016B000CF93DF937C016B0100E010E0C0E0D0E04D
:1016C00011C0D701ED91FC91A080B180B801C60195
:1016D0000E94F80D682FC701F5011995C80FD91F91
:1016E0000F5F1F4FD60114968D919C911597081787
:1016F000190738F3CE01DF91CF911F910F91FF9021
:10170000EF90DF90CF90BF90AF9008950C94400B76
:10171000DC01ED91FC910190F081E02D19940F9383
:101720001F93CF93DF93EC016DE00E94880B8C0137
:101730006AE0CE010E94880B9C01200F311FC90175
:10174000DF91CF911F910F9108950F931F93CF9326
:10175000DF93EC010E94500B8C01CE010E948F0B95
:101760009C01200F311FC901DF91CF911F910F9173
:1017700008950F931F93CF93DF93EC010E94400BCA
:101780008C01CE010E948F0B9801280F391FC901CF
:10179000DF91CF911F910F9108955F926F927F9289
:1017A0008F929F92AF92BF92CF92DF92EF92FF9271
:1017B0000F931F93CF93DF93CDB7DEB7A1970FB6EB
:1017C000F894DEBF0FBECDBF3C016A017B01522EF3
:1017D00019A281E0821710F08AE0582E8E010F5D69
:1017E0001F4F852C912CA12CB12CC701B601A5014E
:1017F00094010E941C2B8C2D529E801911240150A3
:1018000011098A3014F4805D01C0895CF80180837D
:1018100069017A01C114D104E104F10431F7B8017E
:10182000C3010E94400BA1960FB6F894DEBF0FBE15
:10183000CDBFDF91CF911F910F91FF90EF90DF907F
:10184000CF90BF90AF909F908F907F906F905F9060
:1018500008952115310541F4DC01ED91FC910190D1
:10186000F081E02D642F19940C94CD0B9A01AB01FB
:1018700060E070E00C94290C9A01462F50E060E083
:1018800070E00C94290CCF92DF92EF92FF920F93AD
:101890001F93CF93DF93EC016A017B012115310582
:1018A00079F4E881F9810190F081E02D642FDF91D6
:1018B000CF911F910F91FF90EF90DF90CF901994EF
:1018C0002A30310519F477FD0EC02AE0B701A601D0
:1018D000CE01DF91CF911F910F91FF90EF90DF909C
:1018E000CF900C94CD0B6DE20E94880B8C014427A5
:1018F0005527BA014C195D096E097F092AE0CE010E
:101900000E94CD0B9C01200F311FC901DF91CF91A7
:101910001F910F91FF90EF90DF90CF9008959A0163
:10192000AB01662757FD6095762F0C94430C0F93FF
:101930001F93CF93DF9300D01F92CDB7DEB79B01EB
:10194000AC01611571058105910579F069833A83D0
:101950004B835C830E94D92429813A814B815C812D
:101960000E943E2B8B019C0103C000E010E0980117
:10197000B801C9010F900F900F900F90DF91CF9198
:101980001F910F910895CF92DF92EF92FF926B011A
:101990007C01621773078407950764F4CA01B901D3
:1019A0006C197D098E099F090E94970CC60ED71EDF
:1019B000E81EF91EB601C701FF90EF90DF90CF90AF
:1019C0000895FC01808191810C94EC23CF93DF93E7
:1019D000EC0188819981009711F00E94EC23198213
:1019E00018821D821C821B821A82DF91CF9108957A
:1019F0000F931F93CF93DF93EC018B016F5F7F4FAA
:101A0000888199810E94E624009731F09983888328
:101A10001B830A8381E001C080E0DF91CF911F9199
:101A20000F910895CF93DF93EC0188819981892BE1
:101A300031F08A819B818617970708F00CC0CE0190
:101A40000E94F80C882349F08C819D81892B19F420
:101A5000E881F981108281E001C080E0DF91CF91BF
:101A60000895EF92FF920F931F93CF93DF93EC01B2
:101A70007B018A01BA010E94120D811104C0CE01BE
:101A80000E94E60C07C01D830C83B70188819981F1
:101A90000E940226CE01DF91CF911F910F91FF90FE
:101AA000EF900895DC0111961C921E9213961C92E1
:101AB0001E92129715961C921E92149716961C92BF
:101AC0006115710559F0DB010D900020E9F7AD01BA
:101AD00041505109461B570B0C94310D0895CF937B
:101AE000DF93D82FC92F6115710561F0DB010D90CF
:101AF0000020E9F7AD0141505109461B570B0E94E8
:101B0000310D02C00E94E60C8D2F9C2FDF91CF91EA
:101B100008950F931F93CF93DF93CDB7DEB76197EF
:101B20000FB6F894DEBF0FBECDBF8C01CB01F8011C
:101B3000118210821382128215821482168250E062
:101B4000BE016F5F7F4F0E940926BE016F5F7F4F0E
:101B5000C8010E946F0D61960FB6F894DEBF0FBEEC
:101B6000CDBFDF91CF911F910F910895EF92FF921A
:101B70000F931F93CF93DF93EC017B010C811D81A9
:101B80006115710511F480E016C04115510591F001
:101B9000040F151FB8010E94120D8823A1F328819C
:101BA00039818C819D81B701820F931F0E9402268B
:101BB0001D830C8381E0DF91CF911F910F91FF90E6
:101BC000EF900895CF93DF93D82FC92FFB01448165
:101BD0005581608171810E94B60D811104C08D2FE5
:101BE0009C2F0E94E60C8D2F9C2FDF91CF910895A2
:101BF000FC01248135816217730748F4808191814B
:101C0000009729F0FC01E60FF71F8081089580E01E
:101C10000895CF93DF931F92CDB7DEB76983DC01C0
:101C2000ED91FC910280F381E02D41E050E0BE0196
:101C30006F5F7F4F19950F90DF91CF910895CF93EC
:101C4000DF93EC0107C0E881F9810680F781E02D80
:101C5000CE011995E881F9810480F581E02DCE014E
:101C60001995892B81F7DF91CF91089521E0FC012F
:101C70008485843009F420E0822F08950F931F9308
:101C8000CF93DF931F92CDB7DEB78C01DC01ED91CE
:101C9000FC910480F581E02D1995892B51F0BE014E
:101CA0006F5F7F4FF80184850E942014298130E006
:101CB00002C02FEF3FEFC9010F90DF91CF911F912D
:101CC0000F910895FC0184850C94E113CF93DF9369
:101CD0001F92CDB7DEB741E050E0BE016F5F7F4F8E
:101CE000FC0184850E94E113181619061CF4298151
:101CF00030E002C02FEF3FEFC9010F90DF91CF918D
:101D00000895FC016485643021F086E897E00C9426
:101D1000E91580E090E008950F931F93CF93DF9330
:101D20008C01EA01FC018485843019F481E090E0A3
:101D300007C00E948E13892B39F481E090E0F801EE
:101D400093838283C0E0D0E0CE01DF91CF911F91D9
:101D50000F910895CF92DF92EF92FF920F931F930E
:101D6000CF93DF93CDB7DEB7E5970FB6F894DEBF1C
:101D70000FBECDBF7C018B016A01CE0101960E948E
:101D8000C90ACE0109960E943A12CE01C0960E945D
:101D9000C90A68E677E0CE018A960E94B210BE01B9
:101DA000665D7F4FCE0101960E944820AE01405DE6
:101DB0005F4FB801CE0101960E94AD229C01813097
:101DC0009105C9F4D701ED91FC910484F585E02DCE
:101DD00084E194E09DA38CA30AA91BA92CA93DA989
:101DE0000EA31FA328A739A7A601BE016C5D7F4FD4
:101DF000C70119959C01C901E5960FB6F894DEBF9D
:101E00000FBECDBFDF91CF911F910F91FF90EF904B
:101E1000DF90CF900895FC011382128248EE53E0C8
:101E200060E070E044835583668377838AE194E0C1
:101E30009183808384E084870895FC0184858430C5
:101E400039F0382F20E0C9018D5F9B4F0C94481565
:101E500080E00895CF93DF93EC018C858430D1F03E
:101E6000CE010E941D0F843181F0882371F08831EA
:101E700061F08C3161F4E881F9810480F581E02D15
:101E8000CE01199521E0892B19F420E001C021E051
:101E9000822F01C080E0DF91CF910895CF92DF9231
:101EA000EF92FF92CF93DF93EC018C85843091F118
:101EB0000E9487130E94C7046B017C01CE010E941F
:101EC0001D0F8823D1F00E94C7046C197D098E096B
:101ED0009F09683E734081059105A8F00EC08C856E
:101EE0000E940113EC85F0E0EE0FFF1FE059F84F60
:101EF0001182108284E08C870DC0CE010E941D0FDC
:101F0000882381F3ECCF61E070E080E090E00E94F4
:101F10000305D4CFDF91CF91FF90EF90DF90CF906A
:101F20000895AF92BF92CF92DF92EF92FF920F93FC
:101F30001F93CF93DF93EC015B016A018C858430A2
:101F400009F04EC093E0E92E94E0F92E00E010E095
:101F5000C7010E944815811102C00C870AC0883150
:101F6000E1F38C31D1F30F5F1F4FF394043011056F
:101F700079F78C858430A1F12091150230911602F9
:101F80002F5F3F4F09F002C020E034E0309316028B
:101F900020931502409115025091160220E061E055
:101FA0000E940F13B5016E5F7F4FA6018C850E94C2
:101FB000511309C061E070E080E090E00E940305E9
:101FC000CE010E941D0F811103C084E08C8708C0E0
:101FD000CE010E941D0F873169F721E030E002C079
:101FE00020E030E0C901DF91CF911F910F91FF9068
:101FF000EF90DF90CF90BF90AF9008950F9300E0E7
:1020000020E040E060E082E697E00E94D30A0F9172
:10201000089544E050E0BC0181E090E00C94191573
:1020200044E050E0BC0185E090E00C94191544E0D8
:1020300050E0BC018FE090E00C941915AF92BF9274
:10204000CF92DF92EF92FF920F931F93CF93DF9384
:10205000CDB7DEB76E970FB6F894DEBF0FBECDBF1B
:102060006C015B0182E690E00E94160B8C0182E617
:10207000F80111928A95E9F7C801895B9F4F0E9488
:102080003A12F6011783068386E897E00E94DB1474
:1020900046E050E0B50189E090E00E94191500E0AB
:1020A00020E040E060E0CE0149960E94D30ACE01D4
:1020B0004B960E94171010EAE12E1FE0F12E00E06F
:1020C00010E020E63AEE40E050E0B501F6018681EE
:1020D00097810E94F81F8C018130910589F5F601E6
:1020E00066817781CE0143960E94171DCE014596E9
:1020F0000E941710F60166817781CE010D960E942D
:102100002D1DCE010F960E940910F6016681778180
:10211000CE0107960E94221DCE0109960E94101042
:10212000F60166817781CE0101960E94381D4B81B0
:102130005C816D817E81F601428353836483758364
:10214000C8016E960FB6F894DEBF0FBECDBFDF910B
:10215000CF911F910F91FF90EF90DF90CF90BF90A4
:10216000AF90089524E134E0FC0131832083FB012A
:102170004281538164817581FC014283538364836E
:10218000758308950F9300E020E040E060E088E769
:1021900097E00E94D30A88E697E00F910C94C90A51
:1021A000DC01ED91FC91008CF18DE02D199424E17E
:1021B00034E0FC0131832083FB014189528963892A
:1021C0007489FC0142835383648375830895FC0101
:1021D000858996890895FC01818D928D0895CF930C
:1021E000DF931F92CDB7DEB76983DC01ED91FC91DF
:1021F0000280F381E02D41E050E0BE016F5F7F4F30
:1022000019950F90DF91CF910895CF93DF93EC0153
:1022100007C0E881F9810680F781E02DCE0119958C
:10222000898D9A8D892BA9F7DF91CF910895CF934E
:10223000DF931F92CDB7DEB7FC01218D328D232BAA
:1022400049F0BE016F5F7F4F84850E942014298171
:1022500030E002C02FEF3FEFC9010F90DF91CF9127
:102260000895CF93DF93EC01898D9A8D009719F42F
:102270002FEF3FEF11C04817590708F0AC018C85CC
:102280000E94E1139C011816190694F7898D9A8D06
:10229000821B930B9A8F898FC901DF91CF9108958B
:1022A0000F931F93CF93DF931F92CDB7DEB78C01AF
:1022B000FC01818D928D892B59F041E050E0BE01E7
:1022C0006F5F7F4F84850E94E113181619061CF07A
:1022D0002FEF3FEF08C0F801818D928D0197928F0B
:1022E000818F298130E0C9010F90DF91CF911F913B
:1022F0000F910895CF93DF93EC019A018F89988D08
:10230000AB01BC018C850E942E149C018F89988D95
:10231000820F931F988F8F8BC901DF91CF91089502
:10232000FC0184850C948A14FC01108E178A6E5F60
:102330007F4F84850C946414CF93DF93EC018C85DC
:10234000843061F00E940113EC85F0E0EE0FFF1F76
:10235000E059F84F1182108284E08C87DF91CF9191
:1023600008950F931F93CF93DF93CDB7DEB72897D0
:102370000FB6F894DEBF0FBECDBF8C01DC01ED912E
:10238000FC910284F385E02D1995F801648586E8B7
:1023900097E00E94E915892B29F148E050E0BE0141
:1023A0006F5F7F4FD8011C968C910E94E1139C01B6
:1023B00018161906CCF4BE016F5F7F4FC8010F9647
:1023C0000E94EF0A9D8180E02E81820F911DF8010D
:1023D000968B858B3F8120E08885280F311D328FB9
:1023E000218F02C020E030E0C90128960FB6F89492
:1023F000DEBF0FBECDBFDF91CF911F910F9108952A
:10240000CF92DF92EF92FF920F931F93CF93DF93C0
:10241000EC016B018C85843019F593E0E92E94E092
:10242000F92E00E010E0C7010E944815811102C09A
:102430000C8708C08831E1F30F5F1F4FF39404301D
:10244000110589F78C85843059F0DE86CD861A8E89
:10245000198E20E0A60162E00E940F1381E001C006
:1024600080E0DF91CF911F910F91FF90EF90DF906F
:10247000CF900895FC011382128248EE53E060E091
:1024800070E0448355836683778386E394E0918389
:10249000808384E08487CF010F960C94C90ACF9281
:1024A000DF92EF92FF920F931F93CF93DF93CDB7FD
:1024B000DEB7E5970FB6F894DEBF0FBECDBF7C0147
:1024C0008B016A01CE0101960E94C90ACE010996CC
:1024D0000E943A12CE01C0960E94C90A68E677E0CF
:1024E000CE018A960E94B210BE01665D7F4FCE017A
:1024F00001960E944820AE01405D5F4FB801CE01B9
:1025000001960E94AD229C0181309105C9F4D7014A
:10251000ED91FC910088F189E02D84E194E09DA388
:102520008CA30AA91BA92CA93DA90EA31FA328A708
:1025300039A7A601BE016C5D7F4FC70119959C01AB
:10254000C901E5960FB6F894DEBF0FBECDBFDF918F
:10255000CF911F910F91FF90EF90DF90CF90089552
:102560000F9300E020E040E060E08EE797E00E94FB
:10257000D30A0F910895382F20E044E050E0C901BC
:10258000845F9B4F0C94191590E00496982F882730
:10259000860F971F0C94481562E070E00C94C412EB
:1025A0009B0190E00496982F8827642F820F931F39
:1025B0000C94B814462F62E070E00C94D012CF93C4
:1025C000DF93C82FD62F472F60E170E00E94D01212
:1025D0004D2F61E170E08C2FDF91CF910C94D012E0
:1025E000CF93DF93C82FD62F472F64E070E00E946F
:1025F000D0124D2F65E070E08C2FDF91CF910C94BD
:10260000D012CF93C82F40E150E0682F86E897E0C2
:102610000E94F1166FEF8C2FCF910C94DA12EF928B
:10262000FF921F93CF93DF931F921F92CDB7DEB718
:10263000182F7A01862F8150853050F5812F2A83FB
:1026400069830E9401132A816981422F462B60E031
:1026500070E0812F0E94D012E114F10411F0B70153
:102660000BC02091840730918507B9016F5F7F4FC0
:102670007093850760938407812F0E94F01241E0D8
:1026800050E0612F86E897E00E94F11681E001C0DA
:1026900080E00F900F90DF91CF911F91FF90EF900E
:1026A00008951F93CF93DF93182FFB01EA018081D8
:1026B0008F3F51F481818F3F91F482818F3F79F474
:1026C00083818F3F61F41EC0811109C08181811116
:1026D00006C08281811103C08381882399F02097ED
:1026E00089F0BF01812F0E94BB12BE01812F0E9481
:1026F000DF1244E050E0612F86E897E00E94F11677
:1027000081E001C080E0DF91CF911F91089548E002
:1027100050E0682F86E897E00C94F116DF92EF9274
:10272000FF920F931F93CF93DF93D82E8B01EA0173
:10273000413088E0580710F0C0E0D8E06D2D86E801
:1027400097E00E9419167C0163E070E08D2D0E94D5
:10275000C412873111F08C3121F4EC16FD0670F3B0
:1027600002C0C0E0D0E09E01A8016D2D86E897E090
:102770000E94CA1540E250E06D2D86E897E00E9465
:10278000F1160DC063E070E08D2D0E94C41281111E
:1027900006C08D2D0E940113C0E0D0E009C08D2D30
:1027A0000E94CC1284FFEECF60E18D2D0E94DA12E0
:1027B000CE01DF91CF911F910F91FF90EF90DF90AD
:1027C0000895DF92EF92FF920F931F93CF93DF93C1
:1027D000D82E7B018A01682F86E897E00E94E915D0
:1027E000EC01009771F463E070E08D2D0E94C4123B
:1027F0008431E9F08823D9F08C31C9F0CFEFDFEFD5
:1028000016C0081719070CF4E8011C161D067CF405
:1028100000E09E01A7016D2D86E897E00E94A116B9
:1028200040E450E06D2D86E897E00E94F116CE015D
:10283000DF91CF911F910F91FF90EF90DF9008955E
:102840000F93AB0101E021E030E0682F86E897E0CC
:102850000E94A11681E090E00F910895AF92BF927F
:10286000CF92DF92EF92FF920F931F93CF93DF935C
:10287000B82E7B016A01E901682F86E897E00E9483
:1028800019168C179D0740F46B2D86E897E00E947F
:102890001916A82EC92F02C0AC2ECD2F0A2D1C2F21
:1028A0009601A7016B2D86E897E00E9468158A2D96
:1028B0009C2FDF91CF911F910F91FF90EF90DF90B0
:1028C000CF90BF90AF9008951F93CF93DF93182FB1
:1028D000FB01EA018081811109C08181811106C05B
:1028E0008281811103C08381882369F0209759F088
:1028F000BF01812F0E94BB12BE01812F0E94DF12F7
:1029000021E030E002C020E030E0C901DF91CF914A
:102910001F910895CF93C82F40E250E0682F86E8BA
:1029200097E00E94F1160CC08C2F0E94CC1283FFFE
:1029300007C068E18C2F0E94DA1220E030E00BC063
:102940008C2F0E94CC1284FFEFCF60E18C2F0E946D
:10295000DA1221E030E0C901CF9108958EBD0DB4A7
:1029600007FEFDCF8EB508952C9808952C9A0895F2
:102970001F93CF93DF931F921F92CDB7DEB7182F0F
:102980006A8399830E94B41480EF0E94AE149981E7
:10299000892F0E94AE14812F0E94AE146A81862F67
:1029A0000E94AE140E94B61481E00F900F90DF9148
:1029B000CF911F910895CF93DF93EC016CE271E00A
:1029C00080E090E00E9403050E940117249A60E8CD
:1029D00080E090E00E94B81465E58BE190E00E94F1
:1029E000B81465E58AE190E00E94B81480E090E4B4
:1029F0009983888380E090E69987888780E098E4CF
:102A00009B838A8380E098E69B878A8780E090E5B5
:102A10009D838C8380E090E79D878C8780E098E59C
:102A20009F838E8380E098E79F878E87DF91CF9189
:102A30000895CF92DF92EF92FF920F931F93CF935F
:102A4000DF93EC017A018B016A01C80ED91E13C015
:102A50000E94B41480EF0E94AE148D2F0E94AE1419
:102A60008C2F0E94AE142196F80181918F010E9453
:102A7000AE140E94B614CC15DD0551F7C701DF91E5
:102A8000CF911F910F91FF90EF90DF90CF9008951D
:102A90001F93CF93DF931F92CDB7DEB7182F998383
:102AA0000E94B4148FE00E94AE149981892F0E9475
:102AB000AE14812F0E94AE1480E00E94AE14898370
:102AC0000E94B61489810F90DF91CF911F910895D4
:102AD0008F929F92AF92BF92CF92DF92EF92FF922E
:102AE0000F931F93CF93DF937C01962EEA01590138
:102AF00064E270E0892D0E94C412882E65E270E0C5
:102B0000892D0E94C412D82CC12CC82ACC0EDD1EDF
:102B10009601377062E0969EE00CF11C1124F701DB
:102B200080819181820F931FA901400F511F413075
:102B3000584090F0C0E0D8E0C21BD30BAE01B50105
:102B40000E941915A8014C1B5D0BB5016C0F7D1F70
:102B5000F7018081918102C0A801B5010E94191579
:102B60000C0D1D1D412F64E270E0892D0E94D012D2
:102B7000402F65E270E0892DDF91CF911F910F9179
:102B8000FF90EF90DF90CF90BF90AF909F908F908D
:102B90000C94D0120F931F9389019A0140E050E0EA
:102BA0000E9468151F910F910895CF93DF93C82F4E
:102BB00066E270E00E94C412D82F67E270E08C2FAA
:102BC0000E94C4123D2F20E0282BC901DF91CF9134
:102BD0000895FF920F931F93CF93DF93F62EC0E0DB
:102BE000D0E08F2D0E94D5158C01009721F08F2DFC
:102BF0000E94D515EC01C017D10799F7CE01DF91DE
:102C0000CF911F910F91FF900895CF93DF93C82F1D
:102C100060E270E00E94C412D82F61E270E08C2F55
:102C20000E94C4123D2F20E0282BC901DF91CF91D3
:102C30000895FF920F931F93CF93DF93F62EC0E07A
:102C4000D0E08F2D0E9405168C01009721F08F2D6A
:102C50000E940516EC01C017D10799F7CE01DF914C
:102C6000CF911F910F91FF900895CF92DF92EF9235
:102C7000FF920F931F93CF93DF93EC017A018B01A7
:102C80006A01C80ED91E14C00E94B4148FE00E94BD
:102C9000AE148D2F0E94AE148C2F0E94AE1421967C
:102CA00080E00E94AE14F80181938F010E94B61457
:102CB000CC15DD0549F7C701DF91CF911F910F9129
:102CC000FF90EF90DF90CF900895CF92DF92EF9238
:102CD000FF920F931F93CF93DF93690157707C018D
:102CE00022E0629FE00CF11C112488E0E80EF11C48
:102CF000F70180819181840F951F9801240F351F62
:102D00002130384090F0C0E0D8E0C41BD50BAE01B4
:102D1000B6010E943516A8014C1B5D0BB6016C0F65
:102D20007D1FF7018081918102C0A801B601DF916A
:102D3000CF911F910F91FF90EF90DF90CF900C9467
:102D400035168F929F92AF92BF92CF92DF92EF9201
:102D5000FF920F931F93CF93DF936C01962E5A012E
:102D6000E901802E68E270E0892D0E94C412F82EDD
:102D700069E270E0892D0E94C412FF2DE0E07F011E
:102D8000E82A8E019501A701692DC6010E946516EA
:102D900081101AC0CE0DDF1D4D2F68E270E0892D25
:102DA0000E94D0124C2F69E270E0892DDF91CF9103
:102DB0001F910F91FF90EF90DF90CF90BF90AF9059
:102DC0009F908F900C94D012DF91CF911F910F9113
:102DD000FF90EF90DF90CF90BF90AF909F908F903B
:102DE0000895CF93C62F61E070E08C2F0E94D0121F
:102DF00061E070E08C2F0E94C4128111F9CFCF9155
:102E0000089561E084E30E94F70561E083E30E9496
:102E1000F70561E085E30E94F70560E084E30E9426
:102E20002F0660E083E30E942F0661E085E30E94A5
:102E30002F068CB580618CBD8CB580648CBD0895E7
:102E40000F931F93609398077093990780939A0745
:102E500090939B070091170210911802209119027C
:102E600030911A02060F171F281F391F0093A00761
:102E70001093A1072093A2073093A30782E090E06C
:102E80009093A5078093A4070E94C70460939C07B2
:102E900070939D0780939E0790939F071F910F91BA
:102EA0000895CF92DF92EF92FF920F931F931AC073
:102EB0000F5F1F4F2F4F3F4F0093980710939907B5
:102EC00020939A0730939B0748EEC40E43E0D41E2C
:102ED000E11CF11CC0929C07D0929D07E0929E07D6
:102EE000F0929F070E94C704C0909C07D0909D0756
:102EF000E0909E07F0909F076C197D098E099F094D
:102F0000009198071091990720919A0730919B079B
:102F1000683E73408105910558F68091A007909115
:102F2000A107A091A207B091A307081719072A07C4
:102F30003B07E8F0E0919607F09197073097B9F0DA
:102F40001995611571058105910519F00E942017E9
:102F50000EC081E090E02091A4073091A507232BBB
:102F600011F480E090E09093A5078093A40760910E
:102F700098077091990780919A0790919B071F91EC
:102F80000F91FF90EF90DF90CF900895FC01848126
:102F900095810895772767FD7095FC017783668397
:102FA0000895CF92DF92EF92FF920F931F93CF93EA
:102FB000DF937C016A018B01C0E0D0E010C0D70133
:102FC000ED91FC910680F781E02DC70119958F3FA7
:102FD000BFEF9B0739F0F80181938F012196CC1543
:102FE000DD0569F7CE01DF91CF911F910F91FF9021
:102FF000EF90DF90CF900895FC0186819781019634
:1030000039F481E024853585232B19F480E0089577
:1030100081E00895CF93DF93FC01A285B3851097DB
:1030200091F086859785029770F0ED016993D387BB
:10303000C2878685978501979787868711961C9208
:1030400021E030E002C020E030E0C901DF91CF9103
:103050000895FC01268137812F3F8FEF380729F033
:103060008FEF9FEF9783868311C0A085B18510975E
:1030700069F084859585009749F02D91B187A087E7
:10308000019795878487332727FD3095C9010895D7
:103090008DE090E00E945123FC01009729F08DE023
:1030A000DF011D928A95E9F7CF010895EF92FF9213
:1030B0000F931F93CF93DF938C01EB0120C0EA8025
:1030C000FB80888587FD08C06E817F816115710551
:1030D00019F0C8010E9456188885853031F4898519
:1030E0009A85009711F00E94EC23888199810097BE
:1030F00011F00E94EC23CE010E94EC23E7012097FF
:10310000F1F6DF91CF911F910F91FF90EF9008950D
:103110006115710539F0FB01618572854AE050E067
:103120000C948F0C80E090E00895AF92BF92CF9204
:10313000DF92EF92FF920F931F93CF93DF93EC01F7
:103140006115710509F478C0FB01C184D284E38460
:10315000F48420E030E0A901C701B6010E94EE2608
:1031600087FF09C066E574E0CE010E94860BF7FA7E
:10317000F094F7F8F094C701B6010E94F2265B01C3
:103180008C012AE030E0AB01BC01CE010E94290C89
:1031900063E972E0CE010E94860BB501C8010E946E
:1031A0001E279B01AC01C701B6010E9489262CEAAB
:1031B00035EC47EA56E30E948A26F62EE72ED82EF3
:1031C000C92E05E010E020E030E040E251E4D701F4
:1031D000F6016B2F7E2D8F2F9C2D0E94D0276B0127
:1031E0007C017D2D9F2D0E94F2265B014AE050E07C
:1031F000CE010E94360CB50180E090E00E941E27AF
:103200009B01AC016C2D7D2D8E2D9F2D0E9489265A
:10321000F62EE72ED82EC92E20E030E0A901D701E6
:10322000F6016B2F7A2F8F2F9E2F0E94EE26882378
:1032300019F00150110939F680E090E0DF91CF914B
:103240001F910F91FF90EF90DF90CF90BF90AF90C4
:1032500008950F931F93CF93DF93182F092FEB013E
:1032600068E574E00E94860B2097A9F537C06032AC
:1032700050F0623241F06C3531F0812F902F0E9476
:10328000880B219628C06CE5812F902F0E94880B17
:1032900089918C30A9F03CF48930C1F08A3091F0EA
:1032A0008830C9F40BC0823239F08C3519F08D307A
:1032B00091F40AC06CE50BC062E209C062E607C087
:1032C00066E605C06EE603C062E701C064E7812FD1
:1032D000902F0E94880B68816111C9CF62E2812F13
:1032E000902F0E94880B80E090E0DF91CF911F919A
:1032F0000F910895FB01618572850C9429190F9334
:103300001F93CF93DF938C016115710589F1FB0148
:10331000C681D7816BE70E94880B019609F52FEFD4
:103320003FEF28C068817981C8010E942919019660
:10333000B1F36AE3C8010E94880B019681F3BE01D4
:10334000C8010E94C019019651F30A80DB81C02D8B
:10335000209731F06CE2C8010E94880B0196F9F2C7
:10336000209701F76DE7C8010E94880B0196B9F21A
:1033700020E030E0C901DF91CF911F910F910895B6
:103380006115710539F1FB0120852330C9F034F452
:10339000213099F05CF4222361F01CC02530A1F0AB
:1033A0008CF0263099F02730A9F412C06AE574E059
:1033B00002C06FE574E00C94860B65E674E0FBCF09
:1033C0000C9488180C9495180C947A190C94ED1997
:1033D0000C947F1980E090E008950F931F93CF9392
:1033E000DF938C016115710521F1FB01C681D78145
:1033F0006BE50E94880B0196A1F42FEF3FEF1BC0F5
:10340000BE01C8010E94C0190196B9F30A80DB8190
:10341000C02D209731F06CE2C8010E94880B019604
:1034200061F3209769F76DE5C8010E94880B01964A
:1034300021F320E030E0C901DF91CF911F910F917E
:1034400008950F931F93CF93DF93CDB7DEB76297A5
:103450000FB6F894DEBF0FBECDBF80E091E0698B60
:103460007A8B0E9451238C0169897A890097D1F067
:103470001C821B821E821D828FEF9FEF98878F8395
:103480008EE694E09A8389831A8619861C870B87B7
:1034900080E091E0988B8F871E861D86CE01019675
:1034A0000E94C019C80162960FB6F894DEBF0FBE25
:1034B000CDBFDF91CF911F910F910895DB0116963B
:1034C000ED91FC9117974115510599F0309731F422
:1034D00017965C934E9316970895FC018281938111
:1034E0000097D9F753834283DA011596FC93EE9344
:1034F00014970895CF92DF92EF92FF920F931F934C
:10350000CF93DF938C017B016A01E9012097C1F021
:1035100088819981009711F00E94EC23C6010E94D6
:10352000C92588839983AE01B701C801DF91CF9186
:103530001F910F91FF90EF90DF90CF900C945E1A47
:10354000DF91CF911F910F91FF90EF90DF90CF907F
:103550000895CF93DF93EB010E944818FC01009778
:1035600021F083E08087D287C187CF01DF91CF919F
:1035700008950F931F93CF93DF938B010E944818F8
:10358000EC01009739F085E08887C8010E94C925C1
:1035900089879A87CE01DF91CF911F910F9108956E
:1035A0000E944818FC01009711F086E08087CF0147
:1035B00008950E944818FC01009711F087E0808769
:1035C000CF010895EF92FF920F931F93CF93DF9354
:1035D0001F921F92CDB7DEB77C018B01B9014983E1
:1035E0005A830E94A91A9C0149815A81B801C701D6
:1035F0000F900F90DF91CF911F910F91FF90EF905F
:103600000C947A1AEF92FF920F931F93CF93DF934C
:103610001F921F92CDB7DEB77C018B01B9014983A0
:103620005A830E94B91A9C0149815A81B801C70185
:103630000F900F90DF91CF911F910F91FF90EF901E
:103640000C947A1A0F9300E020E040E060E087EAF3
:1036500097E00E94D30A0F9108950E96FC0184E131
:10366000DF011D928A95E9F708952F923F924F92BC
:103670005F926F927F928F929F92AF92BF92CF9202
:10368000DF92EF92FF920F931F93CF93DF93CDB70B
:10369000DEB7E2970FB6F894DEBF0FBECDBF8C0148
:1036A0002A013B013AA729A70E94C7044B015C01EC
:1036B000180187E4280E311C12C00E94C704681943
:1036C00079098A099B09461657066806790608F49F
:1036D00076C162E370E080E090E00E940305C101E2
:1036E0000E94B1111816190644F742E250E0BE01DB
:1036F0006F5F7F4FC1010E9431118981823009F0D3
:1037000059C1F101858996898334910509F45AC11B
:1037100051C1F80180819181A281B381C816D90677
:10372000EA06FB0648F084819581A681B7818C1555
:103730009D05AE05BF0528F4C1010E940511912C1D
:103740005CC189899A89AB89BC89F801868797878A
:10375000A08BB18B8EECE82EF12CC1010E94501190
:10376000F1E0EF1AF108C9F7912CC80182969AA7E7
:1037700089A7380196E2690E711C2801EAE24E0E13
:10378000511CC801885A9F4F9CA78BA758019AE1EA
:10379000A90EB11CF8017296FEA7EDA7C8014696C6
:1037A00098AB8FA7F8017E96FAABE9ABFBC0C101DD
:1037B0000E9450118333910509F4CBC07CF4813011
:1037C000910549F124F4892B09F4ECC0DCC0833065
:1037D000910549F1069709F0D6C041C08A33910599
:1037E00009F48DC03CF48533910569F0C69709F062
:1037F000CAC051C08B33910509F496C08F3F910523
:1038000009F0C1C0CFC0C1010E945011C1010E9486
:103810005011982EC7C0C1010E94501144E050E0E1
:103820006DA57EA548C0C1010E9450116C0144E005
:1038300050E06FA578A9C1010E943111E12CF12C53
:10384000DD24F4E0CF1AD10806C0C1010E94501156
:103850008FEFE81AF80AEC14FD04BCF3A3C0C10111
:103860000E9450116C0144E050E069A97AA9C1019D
:103870000E943111E12CF12CDD2494E0C91AD10809
:1038800006C0C1010E945011EFEFEE1AFE0AEC14BF
:10389000FD04BCF387C0C1010E945011882EF801BD
:1038A000828D938DA48DB58D892B8A2B8B2B39F42A
:1038B00044E050E0B501C1010E94311173C0EBA595
:1038C000FCA5C080D180E280F380B501CE01839653
:1038D0000E94DF0A8DA19EA1AFA1B8A58C159D0500
:1038E000AE05BF0529F3E12CF12C06C0C1010E94F1
:1038F0005011FFEFEF1AFF0A8E10F8CF53C0C1012D
:103900000E94501144E050E0B301C1010E94311106
:10391000F80166A177A180A591A50E945A2B66A304
:1039200077A380A791A73EC0C1010E94501144E037
:1039300050E0B201C1010E943111F80162A573A5E6
:1039400084A595A50E945A2B62A773A784A795A763
:1039500029C0C1010E94501144E050E069A57AA538
:10396000C1010E943111F80162A173A184A195A146
:103970000E945A2B62A373A384A395A366A777A77B
:1039800080AB91AB0FC0C1010E945011D82EE12C29
:10399000F12C06C0C1010E945011FFEFEF1AFF0A7F
:1039A000DE10F8CFC1010E94EB10181619060CF4B6
:1039B000FECE01C0912CC1010E9405111EC09924A8
:1039C0009A941BC06D817E818F8198850E945A2BAD
:1039D0006B017C01E9A5FAA56083718382839383DF
:1039E000B801685F7F4F46E050E0CE014D960E94DF
:1039F000EC25009709F48DCE9FCE892DE2960FB667
:103A0000F894DEBF0FBECDBFDF91CF911F910F9114
:103A1000FF90EF90DF90CF90BF90AF909F908F90EE
:103A20007F906F905F904F903F902F900895CF932D
:103A3000DF93EC01625F7F4F0E94DF0ACE01DF91CE
:103A4000CF910895CF93DF93EC016E5E7F4F0E947C
:103A5000DF0ACE01DF91CF910895CF93DF93EC0180
:103A60006A5E7F4F0E94DF0ACE01DF91CF910895F9
:103A7000CF93DF93EC01625E7F4F0E94DF0ACE019D
:103A8000DF91CF91089580E3FB0180833296842FEC
:103A900082958F7090E1899F401911244A3014F467
:103AA000405D01C0495C4293482F8111F0CF0895D9
:103AB0005F926F927F928F929F92AF92BF92CF92BE
:103AC000DF92EF92FF920F931F93CF93DF93CDB7C7
:103AD000DEB7AC970FB6F894DEBF0FBECDBF7C014A
:103AE000862EB42EA52E30E2932ECC24C394D12C56
:103AF000CC0EDD1EF601292D11922A95E9F70FEF64
:103B00002FEF4FEF6FEFCE0187960E94D30A84E12B
:103B100094E09AA389A309A51AA52BA53CA50BA3FC
:103B20001CA32DA33EA38701095B1F4F43E450E074
:103B3000BE016F5D7F4FC8010E949411019609F488
:103B4000C1C081E089838A8396E0592E5B821C8202
:103B5000F70164817581868197810E945A2B6D835C
:103B60007E838F839887A986BA8680E890E09C87B9
:103B70008B874CE150E0B601C8010E947A11F60132
:103B8000292D11922A95E9F7370188E0680E711CFA
:103B9000F301D60101900D925A94E1F740E150E013
:103BA000B601C8010E947A11F60111929A94E9F7C0
:103BB00026E0A22EB12C40E250E0B601C8010E94DE
:103BC0007A11F1E0AF1AB108B1F783E6898392E880
:103BD0009A8393E59B838C8385E38D8381E08E8339
:103BE0008F829DE3988797E099878A8786E0F30123
:103BF000DE011B9601900D928A95E1F78CE0898B8E
:103C00008A8B6CE774E0CE0143960E940226F7018E
:103C10004385BE01675E7F4FC7010E94431DF701C8
:103C20004485BE01655E7F4FC7010E94431DF701B9
:103C30004585BE01635E7F4FC7010E94431D4EE173
:103C400050E0B601C8010E947A11F3E08F121EC045
:103C500082E3898384E08A83F70196859B83978535
:103C60009C8390899D8391899E8396E39F83888717
:103C7000828D8987838D8A87848D8B87858D8C87BC
:103C80004CE050E0B601C8010E947A1187E38983B5
:103C900086E08A8391E09B8393E09C838D838FE011
:103CA0008E838AE38F838BE388878FEF898749E050
:103CB00050E0BE016F5F7F4FC8010E947A11C801BA
:103CC0000E949011AC960FB6F894DEBF0FBECDBF28
:103CD000DF91CF911F910F91FF90EF90DF90CF90E8
:103CE000BF90AF909F908F907F906F905F9008955E
:103CF0002F923F924F925F926F927F928F929F92FC
:103D0000AF92BF92CF92DF92EF92FF920F931F93E9
:103D1000CF93DF93CDB7DEB72B970FB6F894DEBF06
:103D20000FBECDBF8C0120ED37E040E050E061E0F8
:103D300070E080E090E00E94C30CF801648375831A
:103D4000868397836083718382839383C801895BB1
:103D50009F4F9987888764E470E00E94001288234F
:103D600009F42AC10E94C7046B017C01212C312C6B
:103D70001D82F801EA5BFF4FFF83EE83C801CE96F8
:103D80009B878A8744E8442E43E0542E612C712C93
:103D900058EE852E53E0952EA12CB12CF5C0811143
:103DA0001EC0F80144815581668177814F5F5F4F66
:103DB0006F4F7F4F44835583668377830E94C70488
:103DC0006C197D098E099F09A50194010E941C2B85
:103DD000A90161E0C8010E94581D81E01FC0843024
:103DE00009F5F80144815581668177814F5F5F4F06
:103DF0006F4F7F4F44835583668377830E94C70448
:103E00006C197D098E099F09A50194010E941C2B44
:103E1000A90163E0C8010E94581D82E0EE81FF8184
:103E2000808397C0813069F5EA85FB8540815181A7
:103E3000628173819E012F5F3F4FC8010E94351B35
:103E40008D83823009F085C089819A81AB81BC81E4
:103E5000F80184839583A683B7830E94C7046C19F5
:103E60007D098E099F09A50194010E941C2BA901BF
:103E700063E0C8010E94581D8D81EE81FF8180831F
:103E80006FC0823009F065C0EA85FB8540815181B1
:103E9000628173819E012F5F3F4FC8010E94351BD5
:103EA0008D83853009F04EC083E0EE81FF818083F1
:103EB000F80182A193A1A4A1B5A1892B8A2B8B2BF8
:103EC00021F442A253A264A275A2F80186A197A18F
:103ED000A0A5B1A5892B8A2B8B2B61F442A153A1FC
:103EE00064A175A1769567955795479546A357A305
:103EF00060A771A7F80182A593A5A4A5B5A546A1C1
:103F000057A160A571A5892B8A2B8B2B51F4DB015E
:103F1000CA01880F991FAA1FBB1F82A793A7A4A736
:103F2000B5A7F80146A757A760AB71AB82A593A5CB
:103F3000A4A5B5A582AB93ABA4ABB5AB22242394C7
:103F4000312C0EC0FD81F63021F4EE81FF8110820C
:103F500007C0FD81FF3F21F4EE81FF8110821D82A9
:103F6000F1E02F16310481F00E94C7046C197D091D
:103F70008E099F09F80122AD33AD44AD55AD26172A
:103F800037074807590730F0EE81FF818081833081
:103F900009F005CF888599850E949C11F80144811C
:103FA0005581668177814F5F5F4F6F4F7F4F4483AD
:103FB00055836683778302C0212C312CC1012B9657
:103FC0000FB6F894DEBF0FBECDBFDF91CF911F912A
:103FD0000F91FF90EF90DF90CF90BF90AF909F90A8
:103FE0008F907F906F905F904F903F902F900895AB
:103FF000CF92DF92EF92FF920F931F93CF93DF93B5
:10400000EC016B011AA21BA21CA21DA21EA21FA2E0
:1040100018A619A61AA61BA61CA61DA61EAA1FAA8C
:1040200018AE19AE2AAF3BAF4CAF5DAFFC01FE96A8
:10403000E082F182028313838C01085F1F4F86E0C8
:10404000F80111928A95E9F7CE010E942D1B86E0B6
:10405000F601D80101900D928A95E1F7FE01EA5B25
:10406000FF4F1082CE01DF91CF911F910F91FF90F2
:10407000EF90DF90CF900C94781E0F9300E020E03B
:1040800040E060E08DEA97E00E94D30A0F91089526
:10409000FB014281538164817581FC01428353831A
:1040A00064837583178216820895CF93FB01DB0129
:1040B0008D918111FDCF80E090E020E030E0CAE0FA
:1040C0001BC08F3F910509F064F5DA01A20FB31F01
:1040D00012968C932F5F3F4F80E090E00DC0DC0183
:1040E000CA9FC001CB9F900D1124772767FD709563
:1040F00060537109860F971F6191662321F0243068
:10410000310594F00EC08F3F910509F054F424302E
:1041100031053CF4FA01E20FF31F828321E030E025
:1041200006C020E030E003C06E32C9F6CACFC90134
:10413000CF910895AF92BF92CF92DF92EF92FF920C
:104140000F931F93CF93DF9300D0CDB7DEB77C01E1
:104150005B010E94C704F701778366838701085FCC
:104160001F4FB7016A5F7F4F42E050E0C8010E94D5
:104170007A1181E090E09A83898342E050E0BE01A9
:104180006F5F7F4FC8010E947A1180E091E09A83AF
:10419000898342E050E0BE016F5F7F4FC8010E94FB
:1041A0007A111A82198242E050E0BE016F5F7F4FA0
:1041B000C8010E947A1142E050E0BE016F5F7F4F5C
:1041C000C8010E947A1142E050E0BE016F5F7F4F4C
:1041D000C8010E947A117501650121C0F6017F01B5
:1041E0008191811107C05701AC18BD081A141B0436
:1041F00024F011C08E3299F7F6CFAB8241E050E047
:10420000BE016D5F7F4FC8010E947A11A501B60102
:10421000C8010E947A116701FFEFCF1ADF0AF70188
:1042200080818111DBCF1B8241E050E0BE016D5FD8
:104230007F4FC8010E947A11E12CFF24F394FA8287
:10424000E98242E050E0BE016F5F7F4FC8010E94EB
:104250007A11FA82E98242E050E0BE016F5F7F4F3F
:10426000C8010E947A1181E090E00F900F900F90AA
:10427000DF91CF911F910F91FF90EF90DF90CF9042
:10428000BF90AF9008952F923F924F925F926F929E
:104290007F928F929F92AF92BF92CF92DF92EF92D6
:1042A000FF920F931F93CF93DF93CDB7DEB7639742
:1042B0000FB6F894DEBF0FBECDBF2C014B011A0123
:1042C0000E94C7046B017C01320128E0620E711C60
:1042D000A12CB12C12C00E94C7046C197D098E0953
:1042E0009F0986169706A806B90608F40DC162E371
:1042F00070E080E090E00E940305C3010E94B111CC
:104300001816190644F7F201C280D380E480F580C4
:10431000018D128D238D348DC016D106E206F30671
:1043200009F0F5C0858D968DC59709F0F0C0F5C0F0
:104330004CE050E0BE016F5F7F4FC3010E9431111E
:104340008B819C819827892798279A8B898BF201EA
:104350004681578129813A814217530711F497FD0D
:1043600006C0C3010E9405112CEF3FEFDCC08F7027
:104370009270892B31F0C3010E9405112BEF3FEFA2
:10438000D2C0CF80D884DC24CD24DC24C114D10455
:1043900071F5C3010E9405112AEF3FEFC4C041E04F
:1043A00050E0BE01635F7F4FC3010E9431118D85D4
:1043B000811107C08D858111F2CF0AC0C3010E940F
:1043C00050118D85982F91509D878111F7CFF2CF95
:1043D000C3010E945011C3010E945011C3010E94E9
:1043E0005011C3010E9450110F5F1F4F02C000E027
:1043F00010E08D819E819827892798270817190733
:1044000070F2E12CF12C41E050E0BE016D5E7F4F77
:10441000C3010E9431118B89982F907C69F481111E
:1044200004C00EC0C3010E9450118B89982F915077
:104430009B8B8111F7CF04C0C3010E9450111B8ACE
:104440008B898111E0CF42E050E0BE01615F7F4F78
:10445000C3010E94311142E050E0BE01635F7F4F13
:10446000C3010E943111C3010E945011C3010E9477
:104470005011C3010E945011C3010E94501142E02B
:1044800050E0BE016F5E7F4FC3010E9431118F85E6
:1044900098898115914009F58D859E8581159140FA
:1044A000E1F489899A898115944031F0C3010E9411
:1044B000051127EF3FEF37C0B1016E5F7F4F44E03A
:1044C00050E0C3010E94311121E030E02CC0C30153
:1044D0000E9450110F5F1F4F02C000E010E0898959
:1044E0009A899827892798270817190780F3FFEFDB
:1044F000EF1AFF0AEC14FD0409F085CFC3010E94F6
:10450000051126EF3FEF0FC02FEF3FEF0CC02EEF4E
:104510003FEF09C02DEF3FEF06C0C3010E94EB1033
:104520000C97C4F305CFC90163960FB6F894DEBFAC
:104530000FBECDBFDF91CF911F910F91FF90EF90F4
:10454000DF90CF90BF90AF909F908F907F906F90B3
:104550005F904F903F902F9008956F927F928F922F
:104560009F92AF92BF92CF92DF92EF92FF920F9302
:104570001F93CF93DF9300D000D0CDB7DEB75C019F
:104580004B013A010E945520892B09F051C0F501D9
:10459000C280D380E480F5800091B5071091B60702
:1045A0002091B7073091B807C016D106E206F3068E
:1045B00009F441C00E94C7047501F8E0EF0EF11C38
:1045C0006F707727882799277C5FC7010E940012A8
:1045D0008130A1F584E194E09A838983F501028119
:1045E0001381248135810B831C832D833E8345E316
:1045F00050E0BE016F5F7F4FC7010E949411892B6D
:1046000019F400E010E010C0B401C5010E949A2026
:10461000892BB9F3C7010E949011892B91F4F1CF36
:104620000F3FFFEF1F0781F0C7010E949C1118C0C8
:1046300001E010E015C00EEF1FEF12C000E010E027
:104640000FC093E0C92ED12CA30168E873E1C50126
:104650000E9443218C0121E0C21AD10829F3E0CF46
:10466000C80126960FB6F894DEBF0FBECDBFDF910E
:10467000CF911F910F91FF90EF90DF90CF90BF905F
:10468000AF909F908F907F906F9008950F9300E070
:1046900020E040E060E083EB97E00E94D30A0F91B6
:1046A00008950F931F93CF93DF938230910510F4F9
:1046B00082E090E0E091BB07F091BC0720E030E0A1
:1046C000C0E0D0E023C04081518148175907A8F0CD
:1046D0004817590761F482819381209719F09B83D1
:1046E0008A832EC09093BC078093BB0729C02115F5
:1046F000310529F04217530710F0A90102C0BE018D
:10470000DF0102811381EF019A01F8013097D9F698
:104710002115310509F1281B390B2430310590F49E
:1047200012968D919C9113976115710521F0FB01F3
:104730009383828304C09093BC078093BB07FD01E1
:10474000329644C0FD01E20FF31F819391932250F2
:1047500031092D933C933AC02091B9073091BA07A3
:10476000232B41F420910202309103023093BA07C7
:104770002093B907209100023091010221153105E3
:1047800041F42DB73EB74091040250910502241B1D
:10479000350BE091B907F091BA07E217F307A0F4DF
:1047A0002E1B3F0B2817390778F0AC014E5F5F4F87
:1047B0002417350748F04E0F5F1F5093BA074093F8
:1047C000B9078193919302C0E0E0F0E0CF01DF915F
:1047D000CF911F910F910895EF92FF920F931F9326
:1047E000CF93DF93009709F48EC0DC0112971396E4
:1047F0001C921E921297E090BB07F090BC07E11448
:10480000F10489F42D913C911197280F391F809163
:10481000B9079091BA078217930789F5B093BA0741
:10482000A093B90770C0E70120E030E001C0EA01C1
:10483000CA17DB0738F44A815B819E014115510597
:10484000B1F722C0AC0142505109FA01D383C283AF
:1048500000811181BC01600F711F6C177D0761F42D
:1048600068817981600F711F6E5F7F4F71836083F4
:104870006A817B81738362832115310529F4B093AA
:10488000BC07A093BB073FC0F901B383A283E90132
:1048900049915991C40FD51FAC17BD0771F4DC01C4
:1048A0009E918E91840F951F02969183808312961C
:1048B0008D919C91139793838283A0E0B0E002C016
:1048C000D7017C01F701828193810097C9F7C70165
:1048D000029620813181820F931F2091B907309178
:1048E000BA072817390779F4109729F41092BC07F2
:1048F0001092BB0704C013961C921E921297F0925E
:10490000BA07E092B907DF91CF911F910F91FF9005
:10491000EF9008958F929F92AF92BF92CF92DF92C5
:10492000EF92FF92CF93DF93EC01688179818A81C6
:104930009B81611571058105910521F464E279ED92
:104940008BE597E02DE133EF41E050E00E943E2BF4
:1049500049015A019B01AC01A7EAB1E40E94F52A82
:104960006B017C01ACEEB4EFA50194010E94032B16
:10497000C60ED71EE81EF91EF7FE06C081E0C81A53
:10498000D108E10880E8F80AC882D982EA82FB826D
:10499000E894F7F8B601C701DF91CF91FF90EF904F
:1049A000DF90CF90BF90AF909F908F9008950C9420
:1049B0008A2486E092E00C948A2460930602709325
:1049C0000702809308029093090208958F929F92A4
:1049D000AF92BF92CF92DF92EF92FF920F931F930D
:1049E000CF93DF93EC01009779F4CB01DF91CF9166
:1049F0001F910F91FF90EF90DF90CF90BF90AF90FD
:104A00009F908F900C945123DC01A60FB71FFC01DF
:104A10003297AE17BF0718F4C0E0D0E0A9C00081FC
:104A2000118106171707B0F00530110508F4A0C072
:104A3000C80104978617970708F49AC00250110915
:104A4000061B170B0D931D9371836083CD010E948C
:104A5000EC238EC06B01C01AD10A7C01E00EF11E5E
:104A6000E091BB07F091BC0720E030E080E090E0EF
:104A700048C0EE15FF05D1F580809180540142E0D9
:104A8000A40EB11CAC14BD0488F17401EC18FD082F
:104A9000670122E0C20ED11C9E012250310945E07F
:104AA000C416D10478F04281538113965C934E93DF
:104AB00012971196FC92EE92F901718360833A2F5E
:104AC0002B2F09C00E5F1F4F080D191DD9010D9323
:104AD0001C9332812381009721F0FC0132832383D0
:104AE00047C03093BB072093BC0742C080819181AF
:104AF0002817390708F49C0152814381CF01E52F23
:104B0000F42F309709F0B5CF8091B9079091BA078B
:104B10008E159F05F1F426173707D8F4809100020F
:104B200090910102009741F48DB79EB72091040245
:104B300030910502821B930BA817B90708F06CCFC0
:104B4000B093BA07A093B907FE01329771836083CF
:104B50000FC0CB010E9451237C01009709F45CCF68
:104B6000A801BE010E94F925CE010E94EC23E701B5
:104B7000CE01DF91CF911F910F91FF90EF90DF90C9
:104B8000CF90BF90AF909F908F900895F8940C9421
:104B9000652B0F931F93CF93DF931F921F92CDB777
:104BA000DEB7BC01DC010D900020E9F7CD01861BCA
:104BB000970B69837A830E9451238C0169817A81E2
:104BC000009711F00E940226C8010F900F90DF910C
:104BD000CF911F910F910895FB01DC0104C08D91CD
:104BE0000190801921F441505040C8F7881B990B5F
:104BF0000895FB01DC0102C001900D92415050402C
:104C0000D8F70895FB01DC0101900D920020E1F737
:104C10000895FB019F01423074F0453264F4642F23
:104C200077270E94082B805D8A330CF0895D819381
:104C3000CB010097A1F71082C9010C944F2A0F9362
:104C40001F93CF93DF93CDB7DEB760970FB6F8947D
:104C5000DEBF0FBECDBF088D198D86E08C831A8311
:104C600009838FEF9FE79E838D83AE01445E5F4F84
:104C7000588B4F876A8D7B8DCE0101960E94332819
:104C8000EF81F885E00FF11F108260960FB6F8945F
:104C9000DEBF0FBECDBFDF91CF911F910F91089561
:104CA0000F931F93CF93DF93CDB7DEB72E970FB639
:104CB000F894DEBF0FBECDBF8C01CA0146E04C8325
:104CC0001A83098377FF02C060E070E861507109C0
:104CD0007E836D83A901BC01CE0101960E94332819
:104CE0004D815E8157FD0AC02F81388542175307D9
:104CF0000CF49A01F801E20FF31F10822E960FB602
:104D0000F894DEBF0FBECDBFDF91CF911F910F9101
:104D100008955058BB27AA270ED008C1F9D030F00B
:104D2000FED020F031F49F3F11F41EF4EEC00EF4DB
:104D3000E095E7FBE4C0E92F0AD180F3BA176207D8
:104D400073078407950718F071F49EF522C10EF4DD
:104D5000E0950B2EBA2FA02D0B01B90190010C018B
:104D6000CA01A0011124FF27591B99F0593F50F4A3
:104D7000503E68F11A16F040A22F232F342F4427FB
:104D8000585FF3CF469537952795A795F0405395F3
:104D9000C9F77EF41F16BA0B620B730B840BBAF0C3
:104DA0009150A1F0FF0FBB1F661F771F881FC2F72E
:104DB0000EC0BA0F621F731F841F48F48795779542
:104DC0006795B795F7959E3F08F0B3CF9395880FF9
:104DD00008F09927EE0F9795879508956CD008F401
:104DE00081E00895BCD088F09F5790F0B92F9927A3
:104DF000B751A0F0D1F0660F771F881F991F1AF0E6
:104E0000BA95C9F712C0B13081F0C3D0B1E00895AE
:104E1000C0C0672F782F8827B85F39F0B93FCCF32F
:104E2000869577956795B395D9F73EF490958095DB
:104E3000709561957F4F8F4F9F4F0895E89409C0FB
:104E400097FB3EF490958095709561957F4F8F4FBD
:104E50009F4F9923A9F0F92F96E9BB279395F695D3
:104E6000879577956795B795F111F8CFFAF4BB0F51
:104E700011F460FF1BC06F5F7F4F8F4F9F4F16C0B5
:104E8000882311F096E911C0772321F09EE8872F3F
:104E9000762F05C0662371F096E8862F70E060E0FB
:104EA0002AF09A95660F771F881FDAF7880F969574
:104EB000879597F90895990F0008550FAA0BE0E818
:104EC000FEEF16161706E807F907C0F012161306CC
:104ED000E407F50798F0621B730B840B950B39F40C
:104EE0000A2661F0232B242B252B21F408950A2672
:104EF00009F4A140A6958FEF811D811D089597F9B2
:104F00009F6780E870E060E008959FEF80EC08956F
:104F100000240A9416161706180609060895002498
:104F20000A9412161306140605060895092E039412
:104F3000000C11F4882352F0BB0F40F4BF2B11F486
:104F400060FF04C06F5F7F4F8F4F9F4F089557FDE5
:104F50009058440F551F59F05F3F71F04795880FE7
:104F600097FB991F61F09F3F79F08795089512167E
:104F700013061406551FF2CF4695F1DF08C016162A
:104F800017061806991FF1CF8695710561050894DB
:104F90000895E894BB2766277727CB0197F90895F2
:104FA0000BD0C4CFB5DF28F0BADF18F0952309F095
:104FB000A6CFABCF1124EECFCADFA0F3959FD1F3DC
:104FC000950F50E0551F629FF001729FBB27F00DB7
:104FD000B11D639FAA27F00DB11DAA1F649F66270C
:104FE000B00DA11D661F829F2227B00DA11D621F5B
:104FF000739FB00DA11D621F839FA00D611D221F15
:10500000749F3327A00D611D231F849F600D211DF8
:10501000822F762F6A2F11249F5750408AF0E1F09B
:1050200088234AF0EE0FFF1FBB1F661F771F881FE4
:1050300091505040A9F79E3F510570F060CFAACF24
:105040005F3FECF3983EDCF3869577956795B795CF
:10505000F795E7959F5FC1F7FE2B880F911D9695F9
:10506000879597F908952F923F924F925F926F9292
:105070007F928F929F92AF92BF92CF92DF92EF92E8
:10508000FF920F931F93CF93DF93CDB7DEB72C978B
:105090000FB6F894DEBF0FBECDBF7C016B018A0155
:1050A000FC0117821682838181FFC7C18824839403
:1050B000912C8C0E9D1EF7019381F60193FD859135
:1050C00093FF81916F01882309F4B3C1853239F4CC
:1050D00093FD859193FF81916F01853229F4B7018A
:1050E00090E00E945F2AE7CF712C312C20E0203223
:1050F000A8F48B3261F028F4803251F0833271F4DD
:105100000BC08D3239F0803349F4216028C0226011
:10511000246025C0286023C0206121C027FD27C04E
:10512000382F30533A3078F426FF06C0FAE07F9EDD
:10513000300D1124732E13C08AE0389E300D1124D7
:10514000332E20620CC08E3221F426FD72C1206401
:1051500006C08C3611F4206802C0883641F4F6018E
:1051600093FD859193FF81916F018111C0CF982F9D
:105170009554933018F09052933028F40C5F1F4FE1
:10518000FFE3F9830DC0833631F0833771F0833547
:1051900009F05EC023C0F801808189830E5F1F4F34
:1051A00066246394712C540115C02801F2E04F0E5F
:1051B000511CF801A080B18026FF03C0672D70E06C
:1051C00002C06FEF7FEFC5012C870E94442A3C018B
:1051D00082012C856FE7262E222218C02801F2E0DA
:1051E0004F0E511CF801A080B18026FF03C0672D2F
:1051F00070E002C06FEF7FEFC5012C870E94392A53
:105200003C012C8550E8252E222A820123FC1CC05B
:1052100006C0B70180E290E00E945F2A3A94832D95
:1052200090E068167906A8F30FC0F50127FC859178
:1052300027FE81915F01B70190E00E945F2A311043
:105240003A94F1E06F1A71086114710471F7EEC0BD
:10525000843611F0893641F5F80127FF07C06081D7
:105260007181828193810C5F1F4F08C060817181C1
:10527000882777FD8095982F0E5F1F4F4FE6642E8D
:10528000622297FF09C090958095709561957F4F38
:105290008F4F9F4FF0E86F2A2AE030E0A4010E9470
:1052A0008B2AA82EA81844C0853731F43FEEB32EC0
:1052B000B2222AE030E024C099EFB92EB2228F3614
:1052C000B9F020F4883509F0B4C00DC0803721F062
:1052D000883709F0AEC002C020E1B22AB4FE0BC08C
:1052E00084E0B82A08C024FF09C0E6E0BE2A06C050
:1052F00028E030E005C020E130E002C020E132E0EB
:10530000F801B7FE07C060817181828193810C5FD3
:105310001F4F06C06081718180E090E00E5F1F4FDB
:10532000A4010E948B2AA82EA8188FE7682E6B2054
:1053300066FE0BC0362D3E7FA71450F464FE0AC0F3
:1053400062FC08C0362D3E7E05C0BA2C362D03C047
:10535000BA2C01C0B72C34FF0DC0FE01EA0DF11DBF
:105360008081803311F4397E09C032FF06C0B394C6
:10537000B39404C0832F867809F0B39433FD14C02E
:1053800030FF0FC07A2CB31460F4730C7B18B32C6D
:1053900008C0B70180E290E03C870E945F2AB39486
:1053A0003C85B314B0F304C0B31410F43B1801C02F
:1053B000312C34FF12C0B70180E390E03C870E949B
:1053C0005F2A3C8532FF1EC031FF03C088E590E0B4
:1053D00002C088E790E0B7010CC0832F867891F077
:1053E00031FD02C080E201C08BE237FD8DE2B701E2
:1053F00090E00E945F2A06C0B70180E390E00E941F
:105400005F2A7A94A714C0F3AA94F401EA0DF11D5F
:10541000B701808190E00E945F2AA110F5CF06C0FD
:10542000B70180E290E00E945F2A3A943110F8CFF1
:1054300042CEF7012681378102C02FEF3FEFC9012D
:105440002C960FB6F894DEBF0FBECDBFDF91CF9183
:105450001F910F91FF90EF90DF90CF90BF90AF9092
:105460009F908F907F906F905F904F903F902F9084
:105470000895FC010590615070400110D8F78095A7
:1054800090958E0F9F1F0895FC0161507040019010
:105490000110D8F7809590958E0F9F1F0895DC011D
:1054A000FC01672F71917723E1F7329704C07C915B
:1054B0006D9370836291AE17BF07C8F308950F9381
:1054C0001F93CF93DF938C01EB018B8181FD03C090
:1054D0000FEF1FEF1AC082FF0DC02E813F818C811C
:1054E0009D812817390764F4E881F9810193F983D4
:1054F000E88306C0E885F985802F1995892B41F747
:105500008E819F8101969F838E83C801DF91CF9109
:105510001F910F910895FA01AA27283051F12031E7
:1055200081F1E8946F936E7F6E5F7F4F8F4F9F4F37
:10553000AF4FB1E03ED0B4E03CD0670F781F891F79
:105540009A1FA11D680F791F8A1F911DA11D6A0F47
:10555000711D811D911DA11D20D009F468943F91FA
:105560002AE0269F11243019305D3193DEF6CF01F9
:105570000895462F4770405D4193B3E00FD0C9F7BF
:10558000F6CF462F4F70405D4A3318F0495D31FD2C
:105590004052419302D0A9F7EACFB4E0A69597957F
:1055A000879577956795BA95C9F700976105710555
:1055B00008959B01AC010A2E06945795479537959F
:1055C0002795BA95C9F7620F731F841F951FA01DF9
:1055D0000895A29FB001B39FC001A39F01D0B29FC5
:1055E000700D811D1124911D08950E94E92AA59F27
:1055F000900DB49F900DA49F800D911D11240895CE
:10560000B7FF0C94F52A0E94F52A821B930B08958C
:10561000AA1BBB1B51E107C0AA1FBB1FA617B707D8
:1056200010F0A61BB70B881F991F5A95A9F78095F4
:105630009095BC01CD010895A1E21A2EAA1BBB1BB7
:10564000FD010DC0AA1FBB1FEE1FFF1FA217B3074E
:10565000E407F50720F0A21BB30BE40BF50B661F64
:10566000771F881F991F1A9469F760957095809528
:1056700090959B01AC01BD01CF010895052E97FBCC
:1056800016F4009407D057FD0DD00E941C2B07FC88
:1056900009D07EF490958095709561957F4F8F4FDE
:1056A0009F4F089550954095309521953F4F4F4F0E
:1056B0005F4F0895692796276927782787277827D6
:0E56C00008950790F691E02D1994F894FFCF0D
:1056CE000000BD0720000100000090A2DA0DA33DEE
:1056DE00C0A8021E0100042C0100004661696C6521
:1056EE006420746F20636F6E6669677572652045FE
:1056FE00746865726E6574207573696E67204448B0
:10570E00435000636F6E6E656374696E672E2E2E46
:10571E00006D6F6973747572652073656E736F7249
:10572E00202325692072656164733A2025690A0079
:10573E00706C616E7420232569206E65656473201C
:10574E0077617465720A00436F6E6E656374696E7D
:10575E00672E2E2E00436F6E6E6563746564004374
:10576E006F6E6E656374696F6E206661696C6564D9
:10577E0000706C616E745F25690073656E64696E8E
:10578E0067206576656E7420666F723A20272573E2
:10579E0027272C206D6F6973747572653A20256901
:1057AE000A00747970650064617461006D6F6973CD
:1057BE007475726500776174657265640073656EE9
:1057CE0064696E673A2025730A00504F5354202F98
:1057DE00312E302F6576656E742F707574002048EB
:1057EE005454502F312E3100436F6E6E65637469C1
:1057FE006F6E3A206B6565702D616C69766500433E
:10580E006F6E74656E742D547970653A2061707088
:10581E006C69636174696F6E2F782D7777772D665B
:10582E006F726D2D75726C656E636F646564004387
:10583E006F6E74656E742D4C656E6774683A2000D9
:10584E00557365722D4167656E743A206172647589
:10585E00696E6F2D65746865726E6574002E0A0030
:10586E00170019001B001D001F0021002600280034
:10587E002A002C002E003000270029002B002D00BE
:10588E002F003100080009000A000B000C000D006B
:10589E000000C8430000C8430000C8430000C843CE
:1058AE000000C84300000000000061440000614495
:1058BE0000006144000061440000614400000000EB
:1058CE0000000000C906180B660695067906B70695
:1058DE00000000008E0A00000000090E8C0E810EE2
:1058EE00660E3E0E1F0E910FAA0E620E4E0F2A0F5F
:1058FE00360E00000000EF107A11EB105011171148
:10590E00051100129C1194114F129011B111311109
:10591E00D010D710E7102D0022006E756C6C00664B
:10592E00616C7365007472756500000000000A18E2
:10593E00180BFC172918D117CA17C61757495A6ED4
:04594E00657400007C
:00000001FF
